:100000000C94F6010C9413020C9413020C9413023A
:100010000C9413020C9413020C9413020C9413020C
:100020000C9413020C9413020C946A160C9426166A
:100030000C94FC220C9413020C9413020C941302E3
:100040000C9413020C9413020C9413020C941302DC
:100050000C9413020C9441170C9413020C94130289
:100060000C9413020C9413020C9413020C941302BC
:100070000C9413020C9413020C9413020C941302AC
:100080000C9413020C9413020C9413020C9413029C
:100090000C9413020C9413020C9413020C9413028C
:1000A0000C9413020C9413020C9413022E002B00D8
:1000B000E000E100350000001E0014000057025768
:1000C00034004D001F001A0016000357E0000857C7
:1000D000200008000700045706572C0021001500D7
:1000E0000157055707574A00220017000A0005006C
:1000F0000000E2002900015100002C040000E30090
:100100000F08015300000A570000E20023001C0002
:100110000B00110000002961240018000D001000E0
:1001200052004B0025000C000E00360051002D003F
:10013000260012000F0037002F00340027001300A4
:100140003300387130004E00095731002800E500B7
:100150001250000001000100010001000100000038
:100160003A00010001000100010001003B00010014
:1001700001000100010001003C000100010001003C
:10018000010001003D00010001000100010001002B
:100190003E00010001000100000001003F000100DD
:1001A000000001000000010040000100000001000B
:1001B000000001004100A900AA00A8000000010001
:1001C000420050070B57500D01000100430052053B
:1001D000060551050100010044004F070C574F0D63
:1001E00001000100450001000100010001000100C3
:1001F0000100010001000100010000002E6101006A
:10020000E3000100010000000100010004000E579E
:10021000010001000100010001000F570100145707
:1002200001000100010010571257010001000100F8
:100230000D57115713570100010001000100010083
:10024000000001000100010000002C04000001007A
:100250001409010000001657000001000100010010
:100260000100010000000100010001000100010087
:100270000100010001000100010001000100010076
:100280000100010001000100010001000100010066
:1002900001000100010001001557010001000100EB
:1002A0001050000005010980A101850319012AB73A
:1002B00000150126B700950175108100C0050C09D5
:1002C00001A101850419012AA002150126A00295A9
:1002D0000175108100C005010906A101850505070A
:1002E00019E029E715002501950875018102050728
:1002F000190029EF1500250195F075018102050807
:100300001901290595057501910295017503910162
:10031000C005010906A101050719E029E715002517
:10032000019508750181029501750881010507197C
:100330000029FF150026FF009506750881000508B5
:100340001901290595057501910295017503910122
:10035000C009023B00020100A0FA090400000103E9
:10036000010100092111010001224000070581035C
:1003700008000A090401000103000000092111011D
:100380000001226D000705820320000A120100020D
:1003900000000008973274490100010200011603B1
:1003A0004500720067006F0044006F007800200075
:1003B00045005A00000030035A005300410020005D
:1003C00054006500630068006E006F006C006F00F1
:1003D0006700790020004C0061006200730020007B
:1003E00049006E00630000000403090411241FBECD
:1003F000CFEFDAE0DEBFCDBF13E0A0E0B1E0ECE28A
:10040000FBE402C005900D92A034B107D9F724E0B7
:10041000A0E4B3E001C01D92A938B207E1F70E9441
:100420004D210C9469250C940000E8EDF0E08081EA
:100430008E7F80831092E2001092DA001092E10029
:10044000A0EEB0E08C9181608C9380818F77808367
:1004500019BCA7EDB0E08C918E7F8C9380818F7E4C
:10046000808310924F0408952091E4003091E500BC
:1004700095E6A9012091EC00822F817020FF06C033
:100480008091E80080FF06C080E008952091E80098
:1004900022FD1AC080917404882389F0853089F088
:1004A0008091EB0085FD0FC02091E4003091E500C4
:1004B00042175307F9F29150E1F684E0089582E083
:1004C000089583E0089581E00895EF92FF920F93DD
:1004D0001F93CF937C018B010E943402C82F81119E
:1004E00017C08091E80085FD0BC08091E8008E77F1
:1004F0008093E8000E943402882399F3C82F08C033
:10050000F70181917F018093F1000150110949F7B2
:100510008C2FCF911F910F91FF90EF9008958091B4
:10052000760487FF13C08091E80082FF06C08091A7
:10053000E8008B778093E80004C0809174048111F7
:10054000F2CF0895809174048823D9F38091E80054
:1005500080FFF8CF8091E8008E77ECCF982F9093B2
:10056000E900242F762F50E0891731F07091EC00CC
:100570002091ED005091F00021FD07C09F5F973062
:1005800071F78093E90081E008953091EB003E7FA0
:100590003093EB003091ED003D7F3093ED003091D2
:1005A000EB0031603093EB007093EC002093ED0092
:1005B0005093F0002091EE0027FDE0CF80E00895F9
:1005C000CF92DF92EF92FF920F931F93CF93DF931F
:1005D000C8EDD0E088818F7E8883E7EDF0E08081F0
:1005E0008160808384E082BF81E080934F048881B2
:1005F0008E7F888302EE10E0F80110821092DA00FC
:1006000081EEC82ED12CF601108288818F778883E5
:1006100088818068888388818F7D888319BC109247
:10062000740410927504109273041092720490EE88
:10063000E92EF12CF70180818B7F80838881816096
:10064000888342E060E080E00E94AE02F601808193
:100650008E7F8083F80180818160808380818860C3
:100660008083F70180818E7F808388818061888389
:10067000DF91CF911F910F91FF90EF90DF90CF907E
:100680000895FC0180917C0490917D048617970762
:10069000A0F06115710529F49091E8009E77909380
:1006A000E80090E06115710551F4911108C0809146
:1006B000E80082FF34C080E00895BC01F2CF809151
:1006C00074048823C1F18530C1F18091E80083FD75
:1006D00030C08091E80082FDEACF8091E80080FF81
:1006E000E1CF8091F3002091F200382F6115710560
:1006F00019F02830310558F091E02830310509F023
:1007000090E02091E8002E772093E800CBCF8191F4
:100710008093F100615071092F5F3F4FE7CF8091C7
:100720007404882341F0853041F08091E80083FF14
:10073000BECF81E0089582E0089583E00895089592
:1007400080915104089520910E032223C9F0209135
:100750002C0427FF15C0E62FE695E695E695EE31C9
:10076000D8F4E80FF92FF11D677021E030E001C0E7
:10077000220F6A95EAF72095828128232283089523
:10078000FC01329608962191621303C0DF01119794
:100790001C92E817F907B9F7089520910E03222358
:1007A000C1F020912C0427FF14C0E62FE695E695B2
:1007B000E695EE31F8F4E80FF92FF11D677021E0AE
:1007C00030E001C0220F6A95EAF78281822B828392
:1007D0000895FC0132962FEF30E04191641751F0FB
:1007E0002F3F19F4411101C0232F3F5F3630A9F785
:1007F0002F3F09F40895820F911D27FD9A95FC0162
:100800006283089580910F04811110920F0408955E
:10081000809590910E04982390930E0408958091F2
:100820000E0490910D04892B90910C04892B8093D8
:10083000400390910F049923A1F0892B80934003EA
:1008400080910E03882341F180912C0487FF24C0FE
:100850008EE1E2E4F3E090E0815000F591110E9416
:100860000204E0912E04F0912F043097E1F0809182
:100870000E03882359F080912C0487FF07C08091D4
:1008800040038093410385E0809340030280F3811D
:10089000E02D80E493E0099486E0DBCF21912223D0
:1008A000D9F29F5FD9CF0895E92FEE0FE90FEE0F30
:1008B0008E0F982F977086958695869525E0829F56
:1008C000F0011124EC52FC4F50E040E080E0219117
:1008D00030E0092E02C0369527950A94E2F7217080
:1008E0003327042E01C0220F0A94EAF7822B4F5FB0
:1008F0005F4F4530510559F70895E92FEE0FE90F85
:10090000EE0F8E0F982F977041E001C0440F9A951B
:10091000EAF786958695869595E0899FF0011124E2
:10092000EC52FC4F30E020E070E05191DF01119774
:10093000CB01022E02C0969587950A94E2F781704A
:1009400081958527842385278C932F5F3F4F253002
:10095000310559F708958091D3039091A20398131C
:1009600001C008958F5F8770FACF882341F080958A
:1009700090910D04892380930D040C940F04089525
:10098000882339F090910D04982B90930D040C94CA
:100990000F040895882321F00E9408040C940F048A
:1009A0000895882339F090910E04982B90930E04AB
:1009B0000C940F0408952091970330919803281701
:1009C000390771F09093980380939703E0912E0478
:1009D000F0912F04309721F00084F185E02D0994E7
:1009E000089520919503309196032817390771F0E7
:1009F0009093960380939503E0912E04F0912F0439
:100A0000309721F00680F781E02D09940895109227
:100A10000D0410920C040E940F0490E080E00E94EC
:100A2000F10490E080E00C94DB0460931004709378
:100A3000110480931204909313040C9407058823E7
:100A400041F19CEF980F913A38F4682F80E493E0DD
:100A50000E94A3030C940F0490E2980F983050F476
:100A6000877091E001C0990F8A95EAF7892F0E945B
:100A70000804F0CF9BE5980F933020F490E080E0DD
:100A80000C94F104885A873120F490E080E00C94B3
:100A9000DB040895CF93C82F882309F467C08CEF37
:100AA0008C0F813AC0F580910E03882311F180915B
:100AB0002C0487FF1EC0EC2FE695E695E695F0E046
:100AC000E05CFC4F828190E04C2F477021E030E0E9
:100AD00002C0220F331F4A95E2F782239323892B0A
:100AE00091F06C2F80E493E00E94A3030E940F0416
:100AF0000AC0E2E4F3E088E493E02191C21789F3AD
:100B00008E179F07D1F76C2F80E493E00E94CD03EE
:100B1000CF910C940F0480E28C0F883068F4C7707A
:100B200021E030E001C0220FCA95EAF780910E045F
:100B3000822B80930E04ECCFEBE5EC0FE33040F416
:100B4000F0E0E15FFC4F808190E0CF910C94F104E4
:100B5000C85AC73158F4EC2FF0E0EE0FFF1FEE5EDD
:100B6000FC4F80819181CF910C94DB04CF9108954B
:100B7000E0912E04F0912F04309721F00190F08144
:100B8000E02D099480E00895CF93DF93EC0181E09C
:100B9000898B80910E049F81892B80930E04809114
:100BA0000D049885892B80930D040E940F04EA811F
:100BB000FB81309739F06C897D89CE010696DF91F3
:100BC000CF910994DF91CF910895EF92FF920F9307
:100BD0001F93CF93DF93EC018A85811139C0EB809D
:100BE000FC8087E5F81A26E12E9DC0012F9D900D0F
:100BF0001124DC01AA5FBE4F1496ED91FC9115976C
:100C0000309731F054966D917C91845F9E4F099599
:100C100086E18E9D80018F9D100D11240A5F1E4F6D
:100C2000F80187810E940804F8018085982F90952B
:100C300080910D04892380930D040E940F04188273
:100C400019861B861E821D8210929A0310929903A8
:100C5000DF91CF911F910F91FF90EF9008959091A8
:100C60002C0492FF06C0282F28712830F9F4877FC2
:100C7000846093FF06C0282F28712831F1F4877E05
:100C8000846120912D0420FF06C0382F3871383040
:100C9000D9F4877F816021FF06C0282F2871283171
:100CA000D1F4877E816194FD877E0895282F247179
:100CB0002430F9F68B7F8860DCCF282F2471243113
:100CC00001F78B7E8861DDCF382F3171313019F714
:100CD0008E7F8860E0CF282F2171213121F78E7E11
:100CE0008861E1CFCF93DF93972F70E026E0929F4A
:100CF000600D711D1124FB0134E5839FE00DF11D92
:100D00001124EE0FFF1FE455FF4FC591D491CE0182
:100D1000C238D105B9F1E8F5C133D10509F499C05C
:100D200050F5C932D10509F48DC0CA32D10509F494
:100D300097C0C11542E5D40708F0B6C0C11521E53A
:100D4000D20708F024C1C83ED10508F09DC0C03EBE
:100D5000D10568F5C83AD10508F089C0C53AD10572
:100D600008F0EDC0C130D10511F1209709F443C05E
:100D70002497E8F440C0C533D10509F45CC0C933F9
:100D8000D105B9F620912C04237089F080EE90E013
:100D90000EC0C33ED10591F168F4C03ED105F9F013
:100DA000C23ED10531F620912C0422FD20C0DF91F6
:100DB000CF910895C63ED10561F1C73ED10581F1BD
:100DC000C43ED10509F0B5CF20912D0421FFEFCF0E
:100DD00080912C0484FD0FC087EE90E0E8CF209135
:100DE0002C0420FD01C130912D0430FFE0CF83EEB3
:100DF00090E024FFDCCF90E080E0D9CF20912C045C
:100E000022FDF5C030912D0430FDC0CF24FFCFCF9F
:100E1000F2CF20912C0423FFCACF24FDECCFDCCFEE
:100E200020912C0423FDE6C030912D0431FFEECF3C
:100E300084EE90E0BCCF20912C0425FFB8CF89E24E
:100E400090E0B5CF20912C0425FFB1CF85E390E051
:100E5000AECF20912C0426FFAACF8AE290E0A7CF44
:100E600020912C0426FFA3CF81E390E0A0CFCF3BBD
:100E7000D10508F6C85AD0E0CC0FDD1FCE5EDC4F9E
:100E800088819981946493CFC11530E5D30708F028
:100E900062C0C11540E4D40708F059C0DA95C11505
:100EA000DF4108F484CFA7CFC11536E5D30718F585
:100EB000C11545E5D40708F080C0C11584E5D80701
:100EC00008F076C09C2F96959695AE0143705527F5
:100ED000C115D34508F460C021E030E002C0220F04
:100EE000331F4A95E2F740E2949FC0011124822B00
:100EF000932B9A685CCFC1153AE5D30778F4C115F6
:100F000049E5D40708F063C0C11588E5D80708F49F
:100F100072CF9C2F8827806F906A49CFCE01905660
:100F20008115904208F067CF8D2F8F710E942F0698
:100F300090E0982F882788279F718C2B46C0C55A30
:100F4000D0E0C15FDC4F888190E0906430CFCE016B
:100F50009F70906A2CCF9E01E4E036952795EA9524
:100F6000E1F723708C2F86958695837030E2839FFE
:100F7000C0011124922BC37021E030E002C0220F87
:100F8000331FCA95E2F7822B932B9C6810CF9C2FBE
:100F90008827816F906A0BCF21E030E002C0220FDA
:100FA000331F4A95E2F740E2949FC0011124EBCF32
:100FB0009C2F8827846F906AFACE8C2F0E942F0670
:100FC00090E0982F882788279F719062F0CE8C2F11
:100FD0008F700E942F0634E0D695C7953A95E1F7B9
:100FE000CF709C2F9069E3CE89E390E0E0CE82EE53
:100FF00090E0DDCE86EE90E0DACEBF92CF92DF9227
:10100000EF92FF920F931F93CF93DF938C01C090C9
:101010002804D0902904E0902A04F0902B048091B9
:10102000100490911104A0911204B0911304C82AE5
:10103000D92AEA2AFB2ACFE1D0E0BC2ED701C6018B
:101040000C2E04C0B695A795979587950A94D2F76C
:1010500080FD0EC0219788F7B12C8B2DDF91CF91A9
:101060001F910F91FF90EF90DF90CF90BF90089568
:10107000B8018C2F0E947206019761F3EECFCF93D7
:10108000DF93EC010E94FD07BE01DF91CF910C942C
:1010900072060E943F08292F2F7092959F709250E0
:1010A0009E3078F4E92FF0E0E559FA4D0C94F023E6
:1010B000803F19F020F4883E20F481E00895843FB9
:1010C000E1F380E00895883EC0F3813FD1F7F5CF8A
:1010D000822F86958695869508959C019A9581150F
:1010E0009F4150F4832F817031FD826032FD846016
:1010F00033FD8860FB0109940895CF93DF93EC01E1
:101100000E941F05CE01805E91096AEC74E0089789
:1011100010F065EB74E0CE01DF91CF910C946D0877
:10112000CF93DF93EC01805E910961ED74E0089745
:1011300010F060EC74E0CE010E946D088C2FDF91FE
:10114000CF910C944A05CF93DF93EC010E94900855
:10115000CE01DF91CF910C947D08CF93DF93EC010A
:101160008881833061F481E29BE00E94A30881E2E0
:101170009BE00E94A30881E29BE00E94A308888173
:10118000843030F081E29BE0DF91CF910C94A30892
:10119000DF91CF910895CF93DF93EC018881833065
:1011A00061F48FE495E00E94A3088FE495E00E942B
:1011B000A3088FE495E00E94A3088881843030F072
:1011C0008FE495E0DF91CF910C94A308DF91CF914C
:1011D0000895CF93DF93EC018881833061F480E53B
:1011E00095E00E94A30880E595E00E94A30880E5B1
:1011F00095E00E94A3088881843030F080E595E076
:10120000DF91CF910C94A308DF91CF910895CF93F4
:10121000DF93EC018881833061F486E19AE00E94DB
:10122000A30886E19AE00E94A30886E19AE00E9462
:10123000A3088881843030F086E19AE0DF91CF9175
:101240000C94A308DF91CF910895CF93DF93EC0125
:101250008881833061F48AE290E00E94A3088AE2E8
:1012600090E00E94A3088AE290E00E94A30888818F
:10127000843030F08AE290E0DF91CF910C94A308A3
:10128000DF91CF9108950C942509CF93DF93EC0162
:101290008881833061F48CE490E00E94A3088CE4A0
:1012A00090E00E94A3088CE490E00E94A30888814B
:1012B000843030F08CE490E0DF91CF910C94A3085F
:1012C000DF91CF9108950C944509CF93DF93EC0102
:1012D0008881833061F48FE490E00E94A3088FE45A
:1012E00090E00E94A3088FE490E00E94A308888108
:1012F000843030F08FE490E0DF91CF910C94A3081C
:10130000DF91CF9108950C946509CF93DF93EC01A1
:101310008881833061F480E590E00E94A30880E535
:1013200090E00E94A30880E590E00E94A3088881D5
:10133000843030F080E590E0DF91CF910C94A308E9
:10134000DF91CF9108950C948509CF93DF93EC0141
:101350008881833061F489E190E00E94A30889E1EB
:1013600090E00E94A30889E190E00E94A308888190
:10137000843030F089E190E0DF91CF910C94A308A4
:10138000DF91CF9108950C94A509CF93DF93EC01E1
:101390008881833061F486E090E00E94A30886E0B3
:1013A00090E00E94A30886E090E00E94A308888154
:1013B000843030F086E090E0DF91CF910C94A30868
:1013C000DF91CF9108950C94C509CF93DF93EC0181
:1013D0008881833061F48BE190E00E94A3088BE167
:1013E00090E00E94A3088BE190E00E94A30888810E
:1013F000843030F08BE190E0DF91CF910C94A30822
:10140000DF91CF9108950C94E509CF93DF93EC0120
:101410008881833061F48DE190E00E94A3088DE122
:1014200090E00E94A3088DE190E00E94A3088881CB
:10143000843030F08DE190E0DF91CF910C94A308DF
:10144000DF91CF9108950C94050ACF93DF93EC01BF
:101450008881833061F489E090E00E94A30889E0EC
:1014600090E00E94A30889E090E00E94A308888190
:10147000843030F089E090E0DF91CF910C94A308A4
:10148000DF91CF9108950C94250ACF93DF93EC015F
:101490008881833061F484E090E00E94A30884E0B6
:1014A00090E00E94A30884E090E00E94A308888155
:1014B000843030F084E090E0DF91CF910C94A30869
:1014C000DF91CF910895FC018081813041F49185B5
:1014D000911114C09285992389F082E00895823099
:1014E00041F48185811107C08285811106C083E0A6
:1014F000089586E0089585E0089584E008950E94A7
:10150000630A80938E03823049F018F4813071F0C1
:101510000895833039F0853061F0089581E29AE0D2
:101520000C94900881E29BE00E94900881E29BE08D
:10153000F7CF81E29BE00E94A308F8CF0E94630AE4
:1015400080938C03823049F018F4813071F0089553
:10155000833039F0853061F008958AE294E00C948C
:1015600090088AE290E00E9490088AE290E0F7CF2B
:101570008AE290E00E94A308F8CF0E94630A809359
:101580008A03823049F018F4813071F00895833075
:1015900039F0853061F008958CE494E00C94900863
:1015A0008CE490E00E9490088CE490E0F7CF8CE40B
:1015B00090E00E94A308F8CF0E94630A80938803FA
:1015C000823049F018F4813071F00895833039F099
:1015D000853061F008958FE494E00C9490088FE4D6
:1015E00090E00E9490088FE490E0F7CF8FE490E0C5
:1015F0000E94A308F8CF0E94630A8093860382307A
:1016000049F018F4813071F00895833039F0853055
:1016100061F0089580E594E00C94900880E590E0F6
:101620000E94900880E590E0F7CF80E590E00E946E
:10163000A308F8CF0E94630A80938403823049F0A4
:1016400018F4813071F00895833039F0853061F0FD
:10165000089589E198E00C94900889E190E00E9457
:10166000900889E190E0F7CF89E190E00E94A3081B
:10167000F8CF0E94630A80938203823049F018F405
:10168000813071F00895833039F0853061F008952C
:1016900086E098E00C94900886E090E00E94900824
:1016A00086E090E0F7CF86E090E00E94A308F8CFB4
:1016B0000E94630A80938003823049F018F48130DD
:1016C00071F00895833039F0853061F008958BE131
:1016D00098E00C9490088BE190E00E9490088BE1D8
:1016E00090E0F7CF8BE190E00E94A308F8CF0E9432
:1016F000630A80937E03823049F018F4813071F0E0
:101700000895833039F0853061F008958DE198E0D7
:101710000C9490088DE190E00E9490088DE190E09B
:10172000F7CF8DE190E00E94A308F8CF0E94630AF2
:1017300080937C03823049F018F4813071F0089571
:10174000833039F0853061F0089589E098E00C9499
:10175000900889E090E00E94900889E090E0F7CF3F
:1017600089E090E00E94A308F8CF0E94630A80936A
:101770007A03823049F018F4813071F00895833093
:1017800039F0853061F0089585E195E00C9490087A
:101790008FE495E00E9490088FE495E0F7CF8FE406
:1017A00095E00E94A308F8CF0E94630A8093780313
:1017B000823049F018F4813071F00895833039F0A7
:1017C000853061F008958FE095E00C94900880E5F5
:1017D00095E00E94900880E595E0F7CF80E595E0E0
:1017E0000E94A308F8CF0E94630A80937603823098
:1017F00049F018F4813071F00895833039F0853064
:1018000061F0089586E498E00C94900886E19AE0EF
:101810000E94900886E19AE0F7CF86E19AE00E9464
:10182000A308F8CF0E94630A80937403823049F0C2
:1018300018F4813071F00895833039F0853061F00B
:1018400008958AE291E00C9490088AE290E00E9468
:1018500090088AE290E0F7CF8AE290E00E94A30825
:10186000F8CF0E94630A80937203823049F018F423
:10187000813071F00895833039F0853061F008953A
:101880008CE491E00C9490088CE490E00E94900825
:101890008CE490E0F7CF8CE490E00E94A308F8CFAE
:1018A0000E94630A80937003823049F018F48130FB
:1018B00071F00895833039F0853061F008958FE438
:1018C00091E00C9490088FE490E00E9490088FE4DF
:1018D00090E0F7CF8FE490E00E94A308F8CF0E9439
:1018E000630A80936E03823049F018F4813071F0FE
:1018F0000895833039F0853061F0089580E591E0F6
:101900000C94900880E590E00E94900880E590E0BB
:10191000F7CF80E590E00E94A308F8CF0E94630A09
:1019200080936C03823049F018F4813071F008958F
:10193000833039F0853061F0089589E191E00C94AD
:10194000900889E190E00E94900889E190E0F7CF4B
:1019500089E190E00E94A308F8CF0E94630A809377
:101960006A03823049F018F4813071F008958330B1
:1019700039F0853061F0089586E091E00C9490088C
:1019800086E090E00E94900886E090E0F7CF86E045
:1019900090E00E94A308F8CF0E94630A8093680336
:1019A000823049F018F4813071F00895833039F0B5
:1019B000853061F008958BE191E00C9490088BE103
:1019C00090E00E9490088BE190E0F7CF8BE190E0EF
:1019D0000E94A308F8CF0E94630A809366038230B6
:1019E00049F018F4813071F00895833039F0853072
:1019F00061F008958DE191E00C9490088DE190E004
:101A00000E9490088DE190E0F7CF8DE190E00E9478
:101A1000A308F8CF0E94630A80936403823049F0E0
:101A200018F4813071F00895833039F0853061F019
:101A3000089589E091E00C94900889E090E00E947C
:101A4000900889E090E0F7CF89E090E00E94A30839
:101A5000F8CF0E94630A80936203823049F018F441
:101A6000813071F00895833039F0853061F0089548
:101A700084E091E00C94900884E090E00E9490084B
:101A800084E090E0F7CF84E090E00E94A308F8CFD4
:101A900027982F98089526982E98089525982D9880
:101AA000089556985E980895279A2F9A0895269A31
:101AB0002E9A0895259A2D9A0895CF92DF92EF924B
:101AC000FF92CF936B017C01C701AA27BB27C0E11E
:101AD0000097A105B10519F4D701CB01C0E0492F4A
:101AE0005A2F6B2F7727411551056105710519F0A4
:101AF000C85FDB01CA01AC01BD01E4E076956795E2
:101B000057954795EA95D1F741155105610571053E
:101B100019F0CC5FDB01CA01AC01BD0132E0769562
:101B20006795579547953A95D1F741155105610548
:101B3000710519F0CE5FDB01CA01B695A79597959F
:101B40008795892B8A2B8B2B09F0CF5F0E94510D33
:101B50000E944E0D0E944B0D0E94480DC150C7308F
:101B600040F4EC2FF0E0E758FA4D0C94F0230E947B
:101B70005A0DC701B601CF91FF90EF90DF90CF9043
:101B800008950E945A0D0E94570DF3CF0E945A0DDE
:101B90000E94540DEECF0E945A0D0E94570DF8CFAF
:101BA0000E945D0D609328047093290480932A0499
:101BB00090932B040C9407050F931F9341E050E082
:101BC00060E070E004C0440F551F661F771F8A95C0
:101BD000D2F7CB01BA0160957095809590950091F0
:101BE00028041091290420912A0430912B046023A9
:101BF0007123822393231F910F910C94D00D909108
:101C00000B048095892380930B04282F277071F48F
:101C1000282F082E000C330B9217130639F08595E8
:101C2000859585950E94DC0D10920B0408950F9305
:101C30001F9341E050E060E070E004C0440F551F86
:101C4000661F771F8A95D2F7809128049091290406
:101C5000A0912A04B0912B048A019B01082B192B17
:101C60002A2B3B2BC901B8011F910F910C94D00D69
:101C7000209828982198299822982A9823982B9878
:101C800052985A9853985B983E9846980895809831
:101C9000889A8198899A84988C9A85988D9A869842
:101CA0008E9A87988F9A0895CF93DF9300D00F92E2
:101CB000CDB7DEB790917404943019F589837B8396
:101CC0006A8382E08093E9008FEF9091E800815071
:101CD00095FD06C095ED9A95F1F700008111F5CFBD
:101CE0008091E80085FF0DC050E040E063E070E0C7
:101CF000CE0101960E9465028091E8008E77809364
:101D0000E8000F900F900F90DF91CF910895BC01E4
:101D100084E00C94540EBC0183E00C94540ECF93D9
:101D2000DF93EC0180910E038823B1F180912C04A4
:101D300087FF32C060E282E08093E9008FEF9091EC
:101D4000E800815095FD06C095ED9A95F1F70000E9
:101D50008111F5CF8091E80085FF1BC080910E03B3
:101D600070E050E040E0811104C050E040E068E0E5
:101D700070E0CE010E9465028091E8008E7780932A
:101D8000E80080E2FE01A2E5B4E001900D928A95A0
:101D9000E1F7DF91CF91089568E081E0CDCF8FE347
:101DA0009CE90197F1F700C0000080918E0382301A
:101DB00079F028F4813039F010928E030895833041
:101DC00011F08530C9F781E29BE00E947D08F4CFD5
:101DD00081E29AE0FACF8FE39CE90197F1F700C026
:101DE000000080918C03823079F028F4813039F042
:101DF00010928C030895833011F08530C9F78AE280
:101E000090E00E947D08F4CF8AE294E0FACF8FE35D
:101E10009CE90197F1F700C0000080918A038230AD
:101E200079F028F4813039F010928A0308958330D4
:101E300011F08530C9F78CE490E00E947D08F4CF62
:101E40008CE494E0FACF8FE39CE90197F1F700C0AE
:101E5000000080918803823079F028F4813039F0D5
:101E6000109288030895833011F08530C9F78FE40C
:101E700090E00E947D08F4CF8FE494E0FACF8FE3E6
:101E80009CE90197F1F700C0000080918603823041
:101E900079F028F4813039F0109286030895833068
:101EA00011F08530C9F780E590E00E947D08F4CFFD
:101EB00080E594E0FACF8FE39CE90197F1F700C049
:101EC000000080918403823079F028F4813039F069
:101ED000109284030895833011F08530C9F789E1A9
:101EE00090E00E947D08F4CF89E198E0FACF8FE37B
:101EF0009CE90197F1F700C00000809182038230D5
:101F000079F028F4813039F01092820308958330FB
:101F100011F08530C9F786E090E00E947D08F4CF8B
:101F200086E098E0FACF8FE39CE90197F1F700C0D3
:101F3000000080918003823079F028F4813039F0FC
:101F4000109280030895833011F08530C9F78BE13A
:101F500090E00E947D08F4CF8BE198E0FACF8FE308
:101F60009CE90197F1F700C0000080917E03823068
:101F700079F028F4813039F010927E03089583308F
:101F800011F08530C9F78DE190E00E947D08F4CF13
:101F90008DE198E0FACF8FE39CE90197F1F700C05B
:101FA000000080917C03823079F028F4813039F090
:101FB00010927C030895833011F08530C9F789E0D1
:101FC00090E00E947D08F4CF89E098E0FACF8FE39B
:101FD0009CE90197F1F700C0000080917A038230FC
:101FE00079F028F4813039F010927A030895833023
:101FF00011F08530C9F78FE495E00E947D08F4CF99
:1020000085E195E0FACF8FE39CE90197F1F700C0F5
:10201000000080917803823079F028F4813039F023
:10202000109278030895833011F08530C9F780E568
:1020300095E00E947D08F4CF8FE095E0FACF8FE322
:102040009CE90197F1F700C000008091760382308F
:1020500079F028F4813039F01092760308958330B6
:1020600011F08530C9F786E19AE00E947D08F4CF2F
:1020700086E498E0FACF8FE39CE90197F1F700C07E
:10208000000080917403823079F028F4813039F0B7
:10209000109274030895833011F08530C9F78AE2F5
:1020A00090E00E947D08F4CF8AE291E0FACF8FE3BE
:1020B0009CE90197F1F700C0000080917203823023
:1020C00079F028F4813039F010927203089583304A
:1020D00011F08530C9F78CE490E00E947D08F4CFC0
:1020E0008CE491E0FACF8FE39CE90197F1F700C00F
:1020F000000080917003823079F028F4813039F04B
:10210000109270030895833011F08530C9F78FE481
:1021100090E00E947D08F4CF8FE491E0FACF8FE346
:102120009CE90197F1F700C0000080916E038230B6
:1021300079F028F4813039F010926E0308958330DD
:1021400011F08530C9F780E590E00E947D08F4CF5A
:1021500080E591E0FACF8FE39CE90197F1F700C0A9
:10216000000080916C03823079F028F4813039F0DE
:1021700010926C030895833011F08530C9F789E11E
:1021800090E00E947D08F4CF89E191E0FACF8FE3DF
:102190009CE90197F1F700C0000080916A0382304A
:1021A00079F028F4813039F010926A030895833071
:1021B00011F08530C9F786E090E00E947D08F4CFE9
:1021C00086E091E0FACF8FE39CE90197F1F700C038
:1021D000000080916803823079F028F4813039F072
:1021E000109268030895833011F08530C9F78BE1B0
:1021F00090E00E947D08F4CF8BE191E0FACF8FE36D
:102200009CE90197F1F700C00000809166038230DD
:1022100079F028F4813039F0109266030895833004
:1022200011F08530C9F78DE190E00E947D08F4CF70
:102230008DE191E0FACF8FE39CE90197F1F700C0BF
:10224000000080916403823079F028F4813039F005
:10225000109264030895833011F08530C9F789E046
:1022600090E00E947D08F4CF89E091E0FACF8FE3FF
:102270009CE90197F1F700C0000080916203823071
:1022800079F028F4813039F0109262030895833098
:1022900011F08530C9F784E090E00E947D08F4CF0A
:1022A00084E091E0FACFEF92FF920F931F93CF93C8
:1022B000DF930E94510D0E944E0D0E944B0D0E9413
:1022C000480D88E8E82EF12C8FEF90E0F70191831C
:1022D00080830AE810E0F80191838083CCE8D0E0A5
:1022E000998388830E945A0DFFEF20E782E0F15026
:1022F00020408040E1F700C000000E94570D9FEF92
:10230000E0E7F2E09150E040F040E1F700C000006B
:102310000E94540D2FEF80E792E0215080409040C2
:10232000E1F700C000000E944E0DEFEFF0E722E061
:10233000E150F0402040E1F700C000000E944B0D4A
:102340008FEF90E7E2E081509040E040E1F700C07D
:1023500000000E94480D809116048770FFEF8F9F48
:10236000C001112495958795959587959927F70133
:1023700091838083F80191838083998388830E946D
:10238000510D0E944E0D0E944B0DDF91CF911F9178
:102390000F91FF90EF900C94480DCF9384E090E064
:1023A0000E94F623C82F81E290E00E94F623982F26
:1023B0008C2FCF9108956FEE7EEF90E080E00E9429
:1023C000282460E082E090E00E940A2460E083E03C
:1023D00090E00E940A2410921004109211041092AE
:1023E00012041092130460E084E090E00E940A243A
:1023F00060E081E290E00E940A2460E085E090E0E5
:102400000E940A2460E086E090E00E940A246FEFB8
:1024100087E090E00E940A2440E050E0BA0188E0A2
:1024200090E00E941C2460E08DE090E00E940A246D
:1024300040E050E0BA0188E190E00E941C2460E096
:1024400087E190E00E940A2440E050E0BA018CE16C
:1024500090E00E941C2460E080E290E00E940A2448
:1024600040E050E0BA0188E190E00E941C24109204
:10247000160410921704109218041092190484E0A4
:102480008061809316044091160450911704609166
:102490001804709119048FE090E00E941C2440E021
:1024A00050E0BA0183E190E00C941C2410920E04D9
:1024B00080910E03E2E4F3E0882359F080912C042C
:1024C00087FF07C08EE1DF011D928A95E9F70C9422
:1024D000070586E0F8CF1F93CF93DF93CDB7DEB724
:1024E000AA970FB6F894DEBF0FBECDBF86E794E083
:1024F0002091F100FC012193CF01F4E08E379F077A
:10250000B9F780917704833009F46FC0B8F4813053
:1025100009F446C0823009F4B0C08091E80083FF1E
:102520007BC280917604909177049A3008F074C24F
:10253000E92FF0E0E058FA4D0C94F0238A3009F4CA
:102540008BC08B3009F46EC0893039F780917604E6
:10255000813219F780917A0490917B040297E8F612
:102560008091E800877F8093E8008091E80082FFF7
:1025700037C09091F3008091F200029729F4809186
:10258000F1008B7F813021F48091F1008093510420
:102590008091E8008B778093E8000E948F02BDCF86
:1025A00080917604813A09F0B8CF8091E800877F66
:1025B0008093E80080917A0490917B04892B61F4E8
:1025C00060E282E594E070E00E9441038091E800BF
:1025D0008B778093E800A1CF60E090E080E0F3CFBC
:1025E000809174048111C1CF98CF80917604813A93
:1025F00009F093CF80917A0490917B04892B09F0A4
:102600008CCF8091E800877F8093E8008091E8007C
:1026100080FFFCCF80910E038093F1008091E80051
:102620008E77B9CF80917604813209F076CF809190
:102630007A0490917B04892B09F06FCF8091E80098
:10264000877F8093E8000E948F02809178048093B6
:102650000E030E94561261CF80917604813209F0F8
:102660005CCF8091E800877F8093E8000E948F0212
:10267000809179048093500450CF80917604813A00
:1026800009F04BCF8091E800877F8093E80080912C
:10269000E80080FFFCCF80915004BECF803899F0D5
:1026A000823809F0B9C180917A048F70873008F0C0
:1026B000B3C18093E9008091EB0085FB882780F906
:1026C0001092E90006C080917204909173049111F8
:1026D00082609091E800977F9093E8008093F100EA
:1026E0001092F1008091E8008E7792C1882309F45E
:1026F00080C1823009F090C180917804811183C13A
:1027000080917A048F702FEF280F263008F084C153
:102710008093E9002091EB0020FF75C1933031F4E4
:102720008091EB0080628093EB006DC19091EB0093
:1027300090619093EB0021E030E001C0220F8A9578
:10274000EAF72093EA001092EA008091EB0088609B
:10275000EACF811161C1109178041F778091E30065
:102760008078812B8093E3008091E800877F8093BD
:10277000E8000E948F028091E80080FFFCCF8091EA
:10278000E30080688093E30082E0111183E080938E
:10279000740442C18058823008F03EC180917804B0
:1027A000909179048C3D23E09207A1F583E08A8320
:1027B0008AE289834FB7F894DE01139620E03EE069
:1027C00051E2E32FF0E050935700E49120FF03C063
:1027D000E295EF703F5FEF708E2F90E0EA30C0F02F
:1027E000C7968D939D932F5F243159F74FBF8091EA
:1027F000E800877F8093E8006AE270E0CE010196EE
:102800000E9441038091E8008B778093E80004C127
:10281000C096E7CF40917A0450917B04292F33274B
:102820002330310509F444C078F52130310509F42D
:102830006FC08BE390E0E1E5F3E02230310509F071
:10284000EBC02091E800277F2093E80020917C04D2
:1028500030917D048217930708F49C0140E0211514
:10286000310509F064C0411162C08091E80082FD29
:10287000C9CF80917404882329F2853019F28091A0
:10288000E80083FFF2CFBECF21323105A9F1223219
:10289000310509F0C1C04115510509F443C041306B
:1028A000510509F0B9C08DE690E0E4EAF2E0C9CF45
:1028B000992781309105C1F0009759F0029709F0EE
:1028C000ABC0EEE9F3E0E4918E2F90E0EEE9F3E0A7
:1028D00007C0E8EEF3E0E4918E2F90E0E8EEF3E03D
:1028E000009709F499C0ADCFE6EBF3E0E4918E2FA9
:1028F00090E0E6EBF3E0F4CF4115510571F0413083
:10290000510509F089C089E090E0ECE7F3E099CF48
:1029100082E190E0ECE8F3E094CF89E090E0E3E638
:10292000F3E08FCF80E490E0E1E1F3E08ACF8091A3
:102930007404882309F466CF853009F463CF80914D
:10294000E80083FD5FCF8091E80082FD8ECF80910B
:10295000E80080FF84CF9091F3008091F200211570
:10296000310519F08830910550F041E0089709F0E1
:1029700040E08091E8008E778093E80070CF44912A
:102980004093F1003196215031090196E8CF80380B
:1029900009F042C08091E800877F8093E800809131
:1029A00075048093F1009ECE811136C01091780499
:1029B000123090F58091E800877F8093E8001093B3
:1029C00075040E948F02112311F084E005C08091EC
:1029D000E30087FDFACF81E08093740442E061EC6C
:1029E00081E00E94AE0242E261EC82E00E94AE020F
:1029F00013C080917804813079F481E0933009F03C
:102A000080E0809373041092E9008091E800877F52
:102A10008093E8000E948F028091E80083FF0AC043
:102A20008091E800877F8093E8008091EB008062CE
:102A30008093EB00AA960FB6F894DEBF0FBECDBF11
:102A4000DF91CF911F910895CF93C82F873070F5F4
:102A50008091020390910303892B89F564E670E06D
:102A600080E40E9429239093030380930203892B1F
:102A7000D1F464E670E082E10E9485239093030321
:102A800080930203892B79F481E090E001C0880FE4
:102A9000CA95EAF764E670E080950E9485239093DA
:102AA000030380930203CF910C94D8238A30B9F0AA
:102AB00040F4883071F0893079F0209A2898CF91CD
:102AC00008958C3091F070F08D30B9F73E9A4698A9
:102AD000F6CF219A2998F3CF229A2A98F0CF239AF9
:102AE0002B98EDCF529A5A98EACF539A5B98E7CF3A
:102AF00080E290E09093030380930203809160034F
:102B000081110EC00E94232381E0809360032FEF88
:102B100083ED90E3215080409040E1F700C0000039
:102B200064E670E080E40E9429239093030380937D
:102B30000203892B09F04EC064E670E080E00E9439
:102B400085239093030380930203892B09F042C0ED
:102B500064E670E080E00E948523909303038093F5
:102B60000203892BB9F564E670E08FE30E948523A8
:102B70009093030380930203892B61F50E94D8236D
:102B800064E670E080E40E9429239093030380931D
:102B90000203892BF9F464E670E08CE00E9485233F
:102BA0009093030380930203892BA1F464E670E001
:102BB00080E00E9485239093030380930203892B76
:102BC00049F464E670E08FE30E9485239093030349
:102BD000809302030E94D823809102030895CF932B
:102BE000873050F58091020390910303C0E0892B58
:102BF00071F464E670E081E40E942923909303035A
:102C000080930203892B31F0C0E00E94D8238C2FDF
:102C1000CF91089584E690E00E94B42397FF05C009
:102C20009093030380930203EFCFC82FC0951092B7
:102C3000030310920203E9CFCFB18FB18695869539
:102C40008C73C3708C2BC82FC095E1CF1F920F924D
:102C50000FB60F9211242F933F934F935F936F936F
:102C60007F938F939F93AF93BF93CF93DF93EF9314
:102C7000FF93D091E900DF708091EC00C82FC17004
:102C800080FDC0E81092E9008091F000877F80937A
:102C9000F00078940E946B121092E9008091F0008D
:102CA00088608093F000CD2BCF70C093E900FF9136
:102CB000EF91DF91CF91BF91AF919F918F917F91D4
:102CC0006F915F914F913F912F910F900FBE0F9099
:102CD0001F9018951F920F920FB60F9211242F93E9
:102CE0003F934F935F936F937F938F939F93AF9394
:102CF000BF93EF93FF938091E10082FF09C0809121
:102D0000E20082FF05C08091E1008B7F8093E100AB
:102D10008091DA0080FF24C08091D80080FF20C01D
:102D20008091DA008E7F8093DA008091D90080FF55
:102D30009BC080E189BD82E189BD09B400FEFDCF61
:102D400081E08093740480914F04811109C00E9436
:102D500015020E94E0028091E20084608093E2000C
:102D60008091E10080FF17C08091E20080FF13C0D6
:102D70008091E2008E7F8093E2008091E20080618A
:102D80008093E2008091D80080628093D80019BCC3
:102D900085E0809374048091E10084FF29C08091D4
:102DA000E20084FF25C080E189BD82E189BD89B54B
:102DB000982F917080FFFBCF8091D8008F7D8093FA
:102DC000D8008091E1008F7E8093E1008091E20045
:102DD0008F7E8093E2008091E20081608093E20028
:102DE00080917504882309F445C084E080937404BD
:102DF0008091E10083FF27C08091E20083FF23C020
:102E00008091E100877F8093E10082E080937404E9
:102E1000109275048091E1008E7F8093E100809193
:102E2000E2008E7F8093E2008091E20080618093D7
:102E3000E20042E060E080E00E94AE028091F0009B
:102E400088608093F000FF91EF91BF91AF919F91C7
:102E50008F917F916F915F914F913F912F910F9043
:102E60000FBE0F901F90189519BC10927404109209
:102E70004F0476CF8091E30087FD93E09093740434
:102E8000B7CF78941F921FB61F9211248F939F93F0
:102E9000AF93BF9380917E0490917F04A0918004B2
:102EA000B09181040196A11DB11D80937E04909381
:102EB0007F04A0938004B0938104BF91AF919F9150
:102EC0008F911F901FBE1F9018952FB7F894809177
:102ED0007E0490917F04A0918004B09181042FBF63
:102EE00008950F931F93CF93DF93C62FD42F022FF4
:102EF000FC0182818823A1F0609384040E946517FD
:102F00009093830480938204C77081E001C0880F8E
:102F1000CA95EAF7DF91CF911F910F910C94D104DC
:102F200080918404681343C020918204309183040B
:102F30004FB7F89480917E0490917F04A091800413
:102F4000B09181044FBF821B930B883C910578F5AB
:102F500010E21D0F6D17B9F080E2860F883040F443
:102F6000C77081E001C0880FCA95EAF70E94CA04C1
:102F7000183048F481E09D2F977001C0880F9A9512
:102F8000EAF70E94D104802F0E944A05802F0E94F8
:102F90001F05183098F4D77081E001C0880FDA95CA
:102FA000EAF7DF91CF911F910F910C94CA04C7707B
:102FB00081E001C0880FCA95EAF7F3CFDF91CF9186
:102FC0001F910F9108954F925F926F927F928F920F
:102FD0009F92AF92BF92CF92DF92EF92FF920F93A8
:102FE0001F93CF93DF9300D000D00F92CDB7DEB701
:102FF0007C01DC0113968D919C911497892B41F0F3
:103000001C911196DC90812F8D218F3F09F03DC5D9
:103010000F900F900F900F900F90DF91CF911F9115
:103020000F91FF90EF90DF90CF90BF90AF909F9067
:103030008F907F906F905F904F9008950E94FD0752
:10304000082F682F89819A810E947D04E12FF0E08A
:10305000B6E0DB9EE00DF11D112424E5029FE00D9A
:10306000F11D1124EE0FFF1FE455FF4F0591149140
:10307000D70112968C918111E0C00A32BDE51B0781
:10308000F1F5D70112968C918823C9F1809116042D
:1030900091E0980F9770887F953008F4892B809382
:1030A0001604809116048770BFEF8B9FC001112416
:1030B0009595879595958795992790938900809305
:1030C000880090938B0080938A0090938D0080936A
:1030D0008C0040911604509117046091180470916F
:1030E00019048FE090E00E941C24609128047091E4
:1030F000290480912A0490912B040E945D0DC8013F
:1031000097558F3F910511F008F0E4C0209100031E
:10311000309101032817390724F490930103809319
:103120000003F701228136E1389F5001399FB00C2E
:103130001124C5018A5F9E4F6C01DC0150962C93CF
:103140005097928116968C911697992309F4B4C0E2
:103150001A961C930E9319978F5F16968C930E9464
:103160006517F6019687858780910F048783809184
:103170000D0490910E04892B80870190F081E02D41
:10318000309741F0D60154966D917C91C501845FD2
:103190009E4F099510939A0300939903D7011296B5
:1031A0008C91882309F484C4109284040230BCE515
:1031B0001B0708F4C0C10631ECE51E0738F0980182
:1031C0002B5F3C452730310508F0B5C10E94CD1179
:1031D00090932D0480932C040F30FCE51F0709F415
:1031E0008BC108F00CC108303CE5130709F46EC12F
:1031F00008F0DFC004309CE5190709F45BC108F052
:10320000C7C00230BCE51B0709F450C180912C04F3
:10321000826003301C4509F4DEC060912C041091DB
:103220002D0484E090E00E940A24612F81E290E066
:103230000E940A240E94561276C080910003909149
:103240000103019609F419CF66E0C62E61E0D62E7F
:10325000B12CA12C992493948091000390910103A7
:103260008A159B050CF409CFD60116968C911697FA
:103270008823D9F019968D919C918017910739F484
:103280008091990390919A038017910771F0F6014C
:103290009786148703878189811103C0C6010E9424
:1032A000C405C60106960E94E505FFEFAF1ABF0AE6
:1032B00026E1C20ED11CD0CF882309F46FCFF601CE
:1032C0008189882309F46ACFC501845F9E4F0E94DB
:1032D000E50564CF043FFCE51F0709F44AC098F4F4
:1032E000093D3CE5130709F440C00A3D8CE5180789
:1032F00009F44BC0083D9CE5190709F04FCF26E2C1
:1033000041EE61EE0DC0063FACE51A07D1F1A8F120
:1033100027E245EE66EE073FECE51E0709F03ECFDB
:10332000C7010E94711780910B04877009F470CE59
:10333000F7018281882309F46BCE82E00F900F9011
:103340000F900F900F90DF91CF911F910F91FF90F1
:10335000EF90DF90CF90BF90AF909F908F907F9035
:103360006F905F904F900C94FF0D27E245EE65EE55
:10337000D7CF26E241EE60EED3CF27E245EE64EEF2
:10338000CFCF26E241EE62EECBCF28E241E0EFCF95
:1033900080912C0480610630FCE51F07E1F08091EC
:1033A0002C04886007301C45B0F080912C048062AA
:1033B00012C00B303CE5130709F496C078F40930CD
:1033C0009CE5190709F486C080912C048C600A30B2
:1033D0001C4509F022CF80932C041FCF80912C0430
:1033E0008B7F0D30BCE51B07B1F380912C048D7FE2
:1033F0000E301C4580F380912C04877FECCF0B3F6F
:10340000FCE51F0709F45AC048F502313CE51307F3
:1034100009F47AC060F400319CE5190709F470C022
:1034200080912C048F7B01311C45A9F2F6CE04312A
:10343000BCE51B0709F476C008F46CC005311C45D7
:1034400009F0EBCE80912C0482FB992790F921E0C2
:10345000922790FB82F990FB83F9BDCF0E3F2CE5BC
:10346000120709F445C070F40C3F8CE5180751F1C0
:1034700080912D048E7F0D3F1C4509F0CECE8093A8
:103480002D04CBCE0115ADE51A0709F447C040F174
:1034900001301D4509F0C1CE80912D04982F9095E3
:1034A00091708E7F892B90FB81F9E9CF80912C045C
:1034B000816091CF80912C0484608DCF80912D0408
:1034C0008160DDCF80912D048260D9CF80912C0462
:1034D000806481CF0E94561280912C0480687BCF3B
:1034E00080912D048360CBCF80912C048E7F73CF8D
:1034F00080912D048D7FC3CF80912C048F7E6BCF64
:1035000080912C048F7D67CF0E94561280912C04ED
:103510008F7761CF80912C04837F5DCF80912D04C4
:103520008C7FADCF0E94561290912C04892F97FB6F
:1035300087F9805850CF0631FCE51F0709F0C5C256
:1035400080910E048A7A91E009F490E090939B03B5
:1035500069E2811165E380E493E00E94CD030E945B
:103560000F04E1CE0E9456122FEF34E38CE021507D
:1035700030408040E1F700C00000F89481E0809383
:10358000E00080E28093D8001092C900AFE1BEE471
:103590001197F1F700C000001DBA109268001CBC22
:1035A00010BE1FBA10927A0010926E0010926F0037
:1035B00010927100109272001092C9001092BC001B
:1035C00014B817B81AB81DB810BA1092BC0015B8C4
:1035D00018B81BB81EB811BA0C94003FA4CE0E94B4
:1035E000DB11A1CEC8010E945404D82E85C2212F20
:1035F0002F70A22E107F19F0A29420EFA222DD20BE
:10360000C9F0AA2069F080E2800F883010F08110A4
:103610000BC080910E04A82AA0920E040E940F04F1
:10362000802F0E944A0515C080910D04A82AA092FF
:103630000D04F4CF802F0E941F05AA2051F0005ED8
:10364000083010F0811044C08A2D0E9408040E94A6
:103650000F04EB2DE850FF0B349710F40E94B805CF
:10366000CC20B1F080910B0480FD12C0D7011296DE
:103670001C928595859585950E94170EC7010E941D
:10368000E31780910B048595859585950E94DC0D47
:1036900085E0F701DE01119601900D928A95E1F720
:1036A00089819A810E9454049A81E981F0E0B6E010
:1036B0009B9FE00DF11D112424E5829FE00DF11D7B
:1036C0001124EE0FFF1FE455FF4F85919491A0CC7C
:1036D000A09480910D04A822A0920D04B8CF312FA0
:1036E0003F70932E107F103219F0929490EF992230
:1036F000882041F081E0881631F1DD2079F1AA209F
:1037000041F18ECFDD2091F090910F04892F89290E
:10371000A11003C00E94D1049CCFA1E0AA12FACF4D
:10372000981709F496CF80930F0493CFA11006C089
:103730000E940204892D0E94CA048BCFB1E0AB160F
:1037400009F487CFF5CFDD2031F0E1E0EA1508F488
:1037500080CF892DDFCFA1107CCFECCFAA2051F3F1
:10376000F9E38F1209C02FEF37EE83E0215030408C
:103770008040E1F700C00000802F0E941F0569CF44
:10378000812F86958695837061F0813009F061CF35
:10379000C8019370D11002C090E080E00E94DB0469
:1037A00058CFC8019370D11002C090E080E00E9411
:1037B000F1044FCF812F837009F066C0D11049CF3B
:1037C000802F829586958770880F880F602F6F7085
:1037D000462E512C712C612C082E04C0440C551C13
:1037E000661C771C0A94D2F740E050E0BA0104FF4F
:1037F0000FC04FE050E060E070E004C0440F551F80
:10380000661F771F8A95D2F7409550956095709501
:10381000812F869586958370823019F1D8F40091B6
:10382000100410911104209112043091130481307E
:1038300069F04429552966297729CB01BA0160230B
:103840007123822393230E94150503CF402A512A16
:10385000622A732ACB01BA0164297529862997291E
:10386000F2CF442955296629772900911004109137
:1038700011042091120430911304CB01BA01602786
:10388000712782279327DFCF8695DD2011F0812FC6
:103890008170882309F4DDCE802F8295869587700C
:1038A000880F880F602F6F70462E512C712C612C61
:1038B000082E04C0440C551C661C771C0A94D2F7D1
:1038C00040E050E0BA0104FF0FC04FE050E060E07C
:1038D00070E004C0440F551F661F771F8A95D2F70A
:1038E0004095509560957095812F8695869583704B
:1038F000823019F1D8F40091280410912904209104
:103900002A0430912B04813069F044295529662915
:103910007729CB01BA0160237123822393230E946C
:10392000D00D97CE402A512A622A732ACB01BA01C0
:103930006429752986299729F2CF442955296629B2
:103940007729009128041091290420912A043091AC
:103950002B04CB01BA016027712782279327DFCF81
:103960001F70DD2029F0812F0E94170E802FD2CEEC
:10397000802F0E94CA04812F0E94DC0D6ACE802F06
:1039800092EF891609F44EC0981578F0A0EF8A16C8
:1039900019F1B1EF8B1609F43DC0DD2009F465C0C3
:1039A000A1103ECE812F8F713AC0E3EF8E1609F43D
:1039B0003EC0F4EF8F12F1CFDD2009F44BC01F7130
:1039C000812F0E94170E38E0139FC00111248360DD
:1039D00080930B04812F23C0DD20B9F0A11039CED4
:1039E0001F7161E070E080E090E004C0660F771F17
:1039F000881F991F1A95D2F7009128041091290465
:103A000020912A0430912B04A6CF21E02A1508F436
:103A100020CEE6CF812F8F71DD2009F4ADCF0E943B
:103A2000170E17CE812F8F71DD20C9F3A5CF60E06F
:103A300070E0CB01DD2009F472CF1F7161E070E00E
:103A400080E090E004C0660F771F881F991F1A95C9
:103A5000D2F765CF81E00E94FF0D81E08A1508F062
:103A6000F8CD82E00E94FF0DF4CDAA2059F08933F1
:103A700009F082CE9FEFA7EEB3E09150A040B04096
:103A8000E1F778CE812F8F7177CF85E0F701DE01E6
:103A9000119601900D928A95E1F7D70112962C911B
:103AA00089819A812111CACA0E945404082FCECA62
:103AB00006311C4599F480919B0369E2811165E30D
:103AC00080E493E00E94A3034ACD0115ECE51E07B4
:103AD00009F448CD0F3D1C4509F481CDD7010D9166
:103AE0001C91882309F47ECDC8010E94FD07D82EC1
:103AF000682FC8010E947D04B8018D2D0E947206B6
:103B00008C01882EF701A580A2944FE0A422D280D8
:103B1000D11010920D0480910B04877099F0DD2074
:103B200089F0812F807F803421F080E2800F8830FF
:103B300048F082E00E94FF0D80910B048770CC2436
:103B4000C3948111C12CB12EB2943FE0B322FBE0AB
:103B5000FB1508F47ECDEB2DF0E0E657FA4D0C9402
:103B6000F0231F93CF93DF938091A103807FA9F46B
:103B700080919E03882389F08091D303D091A20382
:103B800060919C0370919D03A0919F03B091A0034D
:103B9000C62FC72316E0D81304C0DF91CF911F9121
:103BA000089590E0109711F0CF3F19F401968770B7
:103BB000F2CF189F9001199F300D1124F901ED5596
:103BC000FC4F41814713F2CF40814613EFCF428132
:103BD0004111ECCF438154814A1B5B0B483C51059A
:103BE00028F78091A1038F7080618093A103F90170
:103BF000E855FC4F80818F70806180838CE993E071
:103C00000E94E317DF91CF911F910C94AB04AF9208
:103C1000BF92CF92DF92EF92FF920F931F93CF93B9
:103C2000DF93CDB7DEB761970FB6F894DEBF0FBE56
:103C3000CDBF8C0185E0F801DE011D9601900D924B
:103C40008A95E1F7F80180819181E2802CE9A22E2A
:103C500023E0B22E60919F037091A003611571055E
:103C600009F43EC130919C0340919D03232F2423EE
:103C70002F3F09F435C1C380D480F0909E03F60134
:103C8000E61BF70BFF2009F4FBC02091A103522F84
:103C9000507FE83CF10508F0BBC0511178C0FE2C04
:103CA000491321C038131FC0E1101DC02F702061BF
:103CB0002093A103C5010E94E3178091A103F8019D
:103CC00085838F2D61960FB6F894DEBF0FBECDBFF2
:103CD000DF91CF911F910F91FF90EF90DF90CF90E8
:103CE000BF90AF900895CD2829F0282F29232F3F8A
:103CF00009F014C120E0F22FF170DF2E20FF3DC04B
:103D00002091D3034091A20356E0241315C08D8760
:103D10009E878D859E850E943F08292F22952F70B2
:103D20002230F8F0243020F59F70F9F0F8019581E9
:103D3000907FD9F4D12C1FC030E0529FF001539FE7
:103D4000F00D1124ED55FC4F6181961306C0608182
:103D5000861303C06281E61210C02F5F3F4F2770A9
:103D6000D4CF9F7011F0882329F3805E883010F340
:103D7000C8010E94E317FD2CA4CFEE2009F4A1CFC7
:103D80008091A10381608093A103F12C9ACF491304
:103D900012C0381310C0E1100EC0F8012583C8010D
:103DA0000E94E31786E0F801ACE9B3E001900D92C0
:103DB0008A95E1F786CF8D879E878D859E850E94A7
:103DC0004908882309F1EE20F9F08091A10380329F
:103DD00070F020919C0330919D0338872F831986C2
:103DE000DB86CA868C87CE0107960E94E31786E0A1
:103DF000F801ACE9B3E001900D928A95E1F70E94D9
:103E0000B11DFF24F3945DCFC8010E94E317F9CFE1
:103E100051110AC08CE993E00E94E31786E0F50196
:103E200011928A95E9F7B1CF49130FC038130DC02D
:103E3000E1100BC0F8012583C8010E94E31786E05A
:103E4000F50111928A95E9F73CCF8D879E878D8584
:103E50009E850E9449088823B9F2EE20A9F280913C
:103E6000A103803220F220919C0330919D033A837C
:103E700029831B82DD82CC828E83CE010196B5CF51
:103E8000E83CF105E0F6FE2CEE2009F4BDCF491325
:103E900016C0381314C08091A10380FD83CF982FE2
:103EA000907F09F47FCFF8018583903F09F477CFA5
:103EB000982F907F905F8F70892B858370CF8D872F
:103EC0009E878D859E850E944908811190CF8091A3
:103ED000A10381608093A103C8010E94E317F1CE82
:103EE000EE2009F491CF8D879E878D859E850E9457
:103EF0004908F82E882309F487CF86E0F801ACE959
:103F0000B3E001900D928A95E1F780919C03909126
:103F10009D030E943F080E94B11DD3CE21E02E25B3
:103F2000EACE1F93CF93DF93CDB7DEB767970FB677
:103F3000F894DEBF0FBECDBF4B8B5C8B6D8B7E8B41
:103F40008F8B1A8A198A85E0FE017396DE011D9611
:103F500001900D928A95E1F786E0FE013D96DE0123
:103F6000179601900D928A95E1F7CE0107960E946F
:103F7000071E811112C086E0FE013796DE01119600
:103F800001900D928A95E1F78A859B85892B29F00E
:103F90008F81988589238F3FB1F516E08091D303F7
:103FA0009091A20389131DC067960FB6F894DEBFE7
:103FB0000FBECDBFDF91CF911F91089596E0929FE4
:103FC000D001939FB00D1124AD55BC4FFE01319629
:103FD00001900D929A95E1F78093A2030E94AB04A1
:103FE000DCCF819FC00111248D559C4F0E94071E7C
:103FF0008823D1F28091D30390E0019687709927AE
:104000008093D303CBCF2091A20330E0C901019666
:10401000877099274091D3034817190679F60E94B3
:1040200056121092A2031092D30386E0ECE9F3E05B
:10403000DF011D928A95E9F7B0CF8F929F92BF92D0
:10404000CF92DF92EF92FF920F931F93CF93DF9364
:104050008091020390910303892B91F080918F034B
:104060008F5F80938F0381110BC00E94781590E0C1
:104070009093030380930203892B11F40E94531140
:104080002AE1822E24E0922E740110E000E097E0F5
:10409000C92EC00E802F0E9424158C2D0E9424153D
:1040A000802F0E94EF15E70199917E01D12C89178D
:1040B00029F0FE0131978083DD24D3948C2D0E945A
:1040C000EF15F7019681891709F47AC0868381E09C
:1040D0008D29182B0E94380E0F5F0730C1F60E9401
:1040E000651760919103709192039093920380936E
:1040F00091032091900330E0261B370B820F931F12
:104100006BEF70E00E94DC23E82E392F082F80939C
:104110009003F0909403FF2009F4A4C0109294033C
:10412000E0911404F0911504AF01425F5F4F20E06D
:104130008BEFB82E6BEF70E0A191AB3F99F0CA2ED8
:10414000D12C8E2D932F0A17E8F18C199D09092E79
:10415000000CAA0BBB0B4E97A105B105C8F1DF01FE
:104160001197BC92E417F50739F7209394031111C6
:1041700002C0211179C010929303A0911404B09150
:10418000150490919403E1E3F4E080E03191E401BF
:1041900029914E01321751F03C913B3FD9F40C93D9
:1041A000AF0141505109EA01288391E01196D4E012
:1041B000EF33FD0759F7909394038093930358C00E
:1041C00080E086CFDB01AC19BD098A0F9B1FBFCFF2
:1041D0002F2DC8CF81E0EACFD89FF001D99FF00DF5
:1041E0001124EA5FFE4F228933892115310511F42C
:1041F00028EC30E0D89FF001D99FF00D1124EA5F40
:10420000FE4F8681882311F1458556856FB7F89456
:1042100080917E0490917F04A0918004B0918104EC
:104220006FBF841B950B2817390780F4CD9F700151
:1042300011248189811105C0C7018A5F9E4F0E94A8
:10424000C405C701845F9E4F0E94E505CF5F8C2F98
:1042500090E02091000330910103281739070CF0FA
:10426000BBCF0EC0111187CF80919303811183CFF3
:104270008091000390910103C0E0D6E1019639F7E7
:10428000812FDF91CF911F910F91FF90EF90DF90E1
:10429000CF90BF909F908F900895CDB7DEB72A97AB
:1042A0000FB6F894DEBF0FBECDBF84B7877F84BF43
:1042B0000FB6F894A89580916000886180936000A3
:1042C000109260000FBE80E890E00FB6F8948093E3
:1042D0006100909361000FBE85B7806885BF85B788
:1042E000806885BF0E9415020E94E0028091E20072
:1042F00084608093E2007894809174048823A1F014
:104300001091E9001F709091EC00892F817090FD51
:1043100080E8182B1092E9008091E80083FD0E944C
:104320006B121F701093E90082E084BD93E095BD8D
:104330009AEF97BD80936E000E94781590E090935D
:104340000303809302030E94380E0E94470EEAE1A5
:10435000F4E0A1E3B4E011921D9224E0E832F20708
:10436000D1F78EE090E00E943E2480931404909355
:104370001504FC010E962BEF21938E179F07E1F792
:1043800090E080E00E9404248F3E9E4F11F00E9436
:10439000DB1189EA8093800089E080938100249872
:1043A0002C983F988AB18F7C8AB96E98479A8BB1C6
:1043B00080638BB9769A8FE090E00E94FE23609331
:1043C000160470931704809318049093190467706F
:1043D0008FEF689FB0011124759567957595679566
:1043E0007727709389006093880070938B006093A7
:1043F0008A0070938D0060938C000E94531190E0AE
:1044000080E00E9404248F3E9E4F11F00E94DB1139
:1044100082E090E00E94F623809340040E94CD1138
:1044200090932D0480932C0483E090E00E94F62367
:10443000682F70E090E080E00E94150560912804EC
:104440007091290480912A0490912B040E945D0DA3
:1044500084E093E090932F0480932E0488E1C82E8B
:10446000D12C90E4992E2FE3A22E24E0B22E81E3EA
:1044700094E03EE0E32EE80E8091740400E112E146
:10448000853009F47DC00E941D20E1E4F4E0A1E341
:10449000B4E010E000E0302F8D912191281709F44D
:1044A0007EC090E0FF24F3942827422F4F2109F487
:1044B00071C099833A838F2191E009F490E09B8346
:1044C0000E9465178160782F9D838C8349815A8172
:1044D0006B818D810E94911FF801EF5BFB4F808102
:1044E000F826F0820E94B80590913F04891721F2C6
:1044F0000E94B80580933F04BFCF8091740484303C
:1045000009F1109230040FB6F894A895C09260009B
:104510000FBE9092600083B7817F846083BF83B7B2
:10452000816083BF7894889583B78E7F83BF0FB6F1
:10453000F894A89580916000886180936000109243
:1045400060000FBE809173048823D1F00E9478151B
:1045500090E090930303809302030E94380E0E9420
:10456000470EE1E3F4E01192AE16BF06E1F70E94B8
:104570001D20E1E3F4E08191811128C0EE12FBCF10
:1045800080917404853009F4B8CF0E9456120E94BD
:10459000B80579CF9F5FFF0C963009F086CF0F5F8B
:1045A0001F4F0E30110509F076CF8FEF8E838F836A
:1045B00018860E9465178160782F9A8789874E81B7
:1045C0005F8168858A850E94911F8CCF09BD19BDC6
:1045D00009B400FEFDCF8091D8008F7D8093D80074
:1045E0008091E00082608093E0008091E00081FD96
:1045F000FCCF0E945612C4CF1F921FB61F921124E7
:104600008F939F93AF93BF9380913004811113C018
:1046100080917E0490917F04A0918004B0918104E8
:104620004196A11DB11D80937E0490937F04A093B9
:104630008004B0938104BF91AF919F918F911F909F
:104640001FBE1F9018951092B9008CE08093B8009F
:104650000895EF92FF920F931F93CF93DF93182F3C
:10466000EB011092BC0084EA8093BC000E946517A5
:104670007C018091BC0087FF27C08091B900887FB2
:10468000883029F08091B900887F8031D9F5109366
:10469000BB0084E88093BC000E9465178C01809168
:1046A000BC0087FF24C02091B900287F90E080E003
:1046B0002831B1F081E090E0203411F490E080E006
:1046C0009195819591090CC0CF3FDC0791F20E9432
:1046D00065178E199F098C179D0758F28EEF9FEF73
:1046E000DF91CF911F910F91FF90EF900895CF3FF1
:1046F000DC07A9F20E946517801B910B8C179D07A0
:1047000070F2ECCF8FEF9FEFEBCF0F931F93CF9310
:10471000DF93EB018093BB0084E88093BC000E9490
:1047200065178C018091BC0087FF11C02091B900F2
:10473000287F81E090E0283211F490E080E09195AC
:1047400081959109DF91CF911F910F910895CF3FEE
:10475000DC0741F30E946517801B910B8C179D07A6
:1047600008F38EEF9FEFEECF0F931F93CF93DF935E
:10477000EC0184E88093BC000E9465178C01809155
:10478000BC0087FF08C08091BB0090E0DF91CF9113
:104790001F910F910895CF3FDC0789F30E946517A1
:1047A000801B910B8C179D0750F38EEF9FEFEECF80
:1047B00084E98093BC000895AA1BBB1B51E107C08C
:1047C000AA1FBB1FA617B70710F0A61BB70B881FA1
:1047D000991F5A95A9F780959095BC01CD01089530
:1047E000EE0FFF1F0590F491E02D0994F999FECF8B
:1047F00092BD81BDF89A992780B50895A6E1B0E0F1
:1048000044E050E00C943024A8E1B0E042E050E0F5
:104810000C943024262FF999FECF92BD81BDF89AD1
:10482000019700B4021639F01FBA20BD0FB6F894F4
:10483000FA9AF99A0FBE08950396272F0E940B2427
:104840000E940A24252F0E940B24242F0C940B2451
:104850000196272F0E940B240C940A24DC01CB0123
:10486000FC01F999FECF06C0F2BDE1BDF89A319680
:1048700000B40D9241505040B8F708950F931F9324
:10488000CF93DF938230910510F482E090E0E091C5
:104890008704F091880430E020E0B0E0A0E0309799
:1048A00099F42115310509F447C0281B390B243030
:1048B0003105C0F58A819B816115710571F1FB019C
:1048C00093838283FE0111C0408151810281138153
:1048D00048175907F8F04817590799F4109761F0ED
:1048E00012960C93129713961C933296CF01DF9178
:1048F000CF911F910F91089500938704109388041E
:10490000F4CF2115310519F04217530718F49A0115
:10491000BD01EF01DF01F801C2CF909388048093BD
:104920008704D0CFFE01E20FF31F819391932250B1
:10493000310939832883DACF2091850430918604A8
:10494000232B41F42091020130910301309386041E
:10495000209385042091000130910101211531053A
:1049600041F42DB73EB74091040150910501241B3D
:10497000350B40918504509186044217530708F087
:10498000B5CF241B350B2817390708F4AFCFBC016E
:104990006E5F7F4F2617370708F4A8CF640F751F87
:1049A0007093860460938504FA01819391939ECF5E
:1049B000CF93DF930097E9F0FC01329713821282C4
:1049C000C0918704D0918804DE0130E020E0209778
:1049D000A1F420813181820F931F209185043091B1
:1049E00086042817390709F067C0F0938604E0931E
:1049F0008504DF91CF910895DA01AE17BF0708F063
:104A000040C012964D915C9113979D01411551053F
:104A100099F7D9011396FC93EE9312974D915D91FE
:104A2000A40FB51FEA17FB0779F4808191810296E4
:104A3000840F951FD90111969C938E938281938147
:104A400013969C938E931297B0E0A0E08A819B818D
:104A50000097B9F5FE0181919191E80FF91F8091BE
:104A60008504909186048E179F0719F6109761F5BB
:104A70001092880410928704D0938604C093850412
:104A8000B8CFB383A28340815181840F951FA817AB
:104A9000B90771F44E5F5F4F8D919C911197480F4C
:104AA000591F5183408312968D919C9193838283E9
:104AB0002115310509F0ADCFF0938804E093870408
:104AC00098CFDE01EC01C2CF13961C921E92129772
:104AD000D3CFF894FFCF58085808610861086308DD
:104AE0006108610861085808580868086108610889
:104AF0006808B70DC30DC80DC10DC60DCD0DCB0D8A
:104B00004E1376130C1576130C15A913CA130C1536
:104B1000C714D414F71AF71A6F1B6F1BC01B291B7D
:0C4B2000291B291BDA1BB01CBF1CBF1C8A
:104B2C00000089042000450A290D371100000000FF
:104B3C00000000000000000000000000250A0A0D23
:104B4C001B1100000000000000000000000000002D
:104B5C000000050AEB0CFF10000000000000000034
:104B6C000000000000000000E509CC0CE310000080
:104B7C000000000000000000000000000000C5095B
:104B8C00AD0CC71000000000000000000000000089
:104B9C0000000000A5098E0CAB1000000000000006
:104BAC000000000000000000000085096F0C8F1051
:104BBC0000000000000000000000000000000000E9
:104BCC006509500C7310000000000000000000008C
:104BDC000000000000004509310C571000000000D7
:104BEC000000000000000000000000002509120C6D
:104BFC003B1000000000000000000000000000005E
:104C0C0000000709F30B1F1000000000000000005B
:104C1C000000000000000000E908D40B03100000A5
:104C2C000000000000000000000000000000CB08A5
:104C3C00B50BE70F000000000000000000000000B2
:104C4C0000000000430A960BCB0F00000000000090
:104C5C0000000000000000000000230A770BAF0FDB
:104C6C000000000000000000000000000000000038
:104C7C00030A580B930F0000000000000000000016
:104C8C00000000000000E309390B770F0000000062
:104C9C00000000000000000000000000C3091A0B17
:104CAC005B0F00000000000000000000000000008E
:104CBC000000A309FB0A3F0F0000000000000000E9
:104CCC0000000000000000008309DC0A230F000034
:104CDC00000000000000000000000000000063095C
:104CEC00BD0A070F000000000000000000000000DB
:104CFC000000000043099E0AEB0E000000000000BB
:104D0C0000000000000000000000AD087F0ACF0E7C
:104D1C000000000000000000000000000000000087
:104D2C00FFFF2000A0038F0E9F038B0E870E0181C7
:104D3C008283E200E900EA00B500B600B700CD00BE
:104D4C008301CC008A0192019401210223022402E6
:104D5C002502260227022A02B300B4006F0070005D
:00000001FF
